:020000021000EC
:10C0000000400020FDC6010039C701003BC7010008
:10C010000000000000000000000000000000000020
:10C020000000000000000000000000003DC701000B
:10C0300000000000000000003FC7010041C70100F0
:10C0400043C7010043C70100F9D0010043C7010005
:10C0500043C701000000000043C7010043C70100BF
:10C0600043C7010043C7010043C7010043C70100A4
:10C0700043C7010043C7010043C7010043C7010094
:10C0800043C701000DD3010043C7010043C70100AE
:10C0900043C7010043C7010043C7010043C7010074
:10C0A00043C7010043C7010000000000000000007A
:10C0B0000000000000000000000000000000000080
:10C0C00010B5064C2378002B07D1054B002B02D06E
:10C0D000044800E000BF0123237010BD6C2800203D
:10C0E00000000000B0E3010008B5084B002B03D0AE
:10C0F0000748084900E000BF07480368002B03D049
:10C10000064B002B00D0984708BDC0460000000039
:10C11000B0E30100702800206C280020000000001F
:10C12000164B002B00D1144B9D46402292029A1AC6
:10C13000924600218B460F461348144A121A01F00A
:10C1400074FA0F4B002B00D098470E4B002B00D0F9
:10C1500098470020002104000D000D48002802D05F
:10C160000C4800E000BF01F031FA2000290000F087
:10C1700035FE01F015FAC04600000800004000201E
:10C1800000000000000000006C280020242900208E
:10C19000000000000000000008B50C20002100F0A5
:10C1A0005DFD08BD08B50C20012100F057FD08BD5C
:10C1B00070B5FFF7F7FFFFF7EFFF224C9F21201C20
:10C1C00000F07BFA0021201C00F077FA1E4D0021C0
:10C1D0002870201C00F071FA00216870201C00F00B
:10C1E0006CFA0021A870201C00F067FA0026E870A5
:10C1F000EB789E4205DA201C002100F05EFA013641
:10C20000F6E7124C201C00F097FC201C104900F0AF
:10C210008AFC29781022201C00F0D1FC201C0D493A
:10C2200000F081FC69781022201C00F0C4FC201C66
:10C23000094900F078FCA978201C102200F0BFFC0E
:10C2400070BDC0469428002088280020E4280020E3
:10C2500084DF010095DF01009CDF010038B5FFF7A6
:10C26000A1FFFFF799FF124C5721201C00F025FA7F
:10C270000021201C00F021FA0021051C201C00F0E8
:10C280001CFA0C4BDB78EA0706D48422002B06D07C
:10C290008422012B08D00AE0002B02D18022D20098
:10C2A00003E0012B03D180225200034B1A6038BDFA
:10C2B00094280020882800209028002010B5FFF73F
:10C2C00071FFFFF769FF084C5721201C00F0F5F9BA
:10C2D000201C002100F0F1F98306044A5B0FD25CB8
:10C2E000034B1A7010BDC046942800207CDF01006B
:10C2F0008C28002010B51220012100F087FC1120AD
:10C30000002100F083FC1020012100F07FFC0A20B6
:10C31000012100F07BFC0C20012100F077FC0A20B9
:10C32000012100F09BFC01210C2000F097FC0B4C3C
:10C33000201C00F0BBF9201C094900F0CCF9201C9E
:10C34000032100F0BFF90121201C00F0C9F9FFF71B
:10C350002FFFFFF7B3FFFFF781FF10BD94280020E8
:10C3600080841E0070B50C1C051CFFF71BFFFFF737
:10C3700013FF012C19D1114C5321201C00F09DF901
:10C380000F4E10213378201CC91A2B1CCB40D9B278
:10C3900000F093F93178201C08398D40E9B200F0A3
:10C3A0008CF9201C002100F088F9FFF7F5FEFFF75B
:10C3B000F9FEFFF783FF0306FBD570BD942800202C
:10C3C0008C280020F8B5041C0E1C171C1D1CFFF740
:10C3D000E9FEFFF7E1FE012C1FD1104C5421201C77
:10C3E00000F06BF90021201C00F067F9310AC9B296
:10C3F000201C00F062F9F1B2201C00F05EF9201C54
:10C40000002100F05AF9EE19B54206D0201C002197
:10C4100000F053F928700135F6E7F8BD94280020A4
:10C42000F8B5051C0E1C171C1C1CFFF7BBFEFFF704
:10C43000B3FE012D1AD10E4D8421281C00F03DF9C8
:10C440000021281C00F039F9310AC9B2281C00F07B
:10C4500034F9F1B2281C00F030F9E619B44205D0E5
:10C460002178281C00F029F90134F7E7F8BDC0460F
:10C470009428002070B5041C0D1CFFF793FEFFF7F5
:10C480008BFE012C19D1114C8321201C00F015F9D1
:10C490000F4E10213378201CC91A2B1CCB40D9B267
:10C4A00000F00BF93178201C08398D40E9B200F01A
:10C4B00004F9201C002100F000F9FFF773FEFFF7DC
:10C4C0006BFEFFF7FBFE0306FBD570BD9428002032
:10C4D0008C280020F0B5C82385B0151C8218041CD8
:10C4E00003915B029A4200D91D1A0026B54237D04B
:10C4F0008421201C490001F0B1F88421071C490067
:10C50000201C01F0EFF82C1C0191002C27DDFFF717
:10C5100043FE381C0121FFF725FFFFF743FE019A78
:10C5200084235B009B1A00220292A34202D2E41AE7
:10C5300002941C1CFFF730FE039A01209319019905
:10C54000221CFFF76DFF391C0120FFF793FFFFF757
:10C5500029FE0023361901370193029CD5E72E1CD2
:10C56000301C05B0F0BDF0B5C82385B0151C1218FD
:10C57000041C03915B029A4200D91D1A002D36DD7E
:10C580008421201C490001F069F88421071C49001E
:10C59000201C01F0A7F80E1C00212C1C0291FFF7B3
:10C5A000FBFD381C0121FFF7DDFEFFF7FBFD8423B7
:10C5B0005B0000229B1B0192A34202D2E41A019469
:10C5C0001C1CFFF7E9FD0399029A01208B18311C0E
:10C5D000221CFFF7F7FEFFF7E5FD029B01991B19EF
:10C5E00002930137002904DD00260C1CD7E7002048
:10C5F00000E0281C05B0F0BD08B59621034889016C
:10C6000000F0D8FBFFF776FE08BDC046E428002006
:10C6100030B585B0FFF7CCFDFA20800000F0EFFACE
:10C620000D4D0024281C00F087FA0C490C22002034
:10C63000FFF750FF002069460C22FFF794FF6B467E
:10C64000195D281C013400F072FA0C2CF7D1281C5B
:10C6500000F072FA05B030BDE4280020A0DF010030
:10C66000F7B5041C081C1F1C161C00F0B3FA051CAF
:10C67000301C00F0AFFA061C381C00F0ABFA0123A6
:10C680005B42311C021C0093201C2B1C00F02CF977
:10C690000022201C131C082100F0ACF8201C0249C9
:10C6A00000F0E0F8F7BDC04640420F0008B5102189
:10C6B00012221123FFF7D4FF08BD08B500F0FEF9E0
:10C6C000C0B208BD08B50A1E032A03D808210023FA
:10C6D00000F090F808BD08B500F0C4F808BD0000EF
:10C6E0000268054B012901D1D15802E0D15801203F
:10C6F0000143D1507047C046540500000848026805
:10C7000003210A4302600749074A084B9B1A03DDCD
:10C71000043BC858D050FBDC05488047054800471B
:10C7200024050040BCE30100002800206C28002004
:10C7300045C7010021C10100FEE7FEE7FEE7FEE775
:10C74000FEE7FEE7234B10B51A78181C012A12D118
:10C75000214B1B6819070ED1204BF0221B68E024E7
:10C76000191C1140234204D11D4B1B68134202D1F6
:10C7700020E03029F8D00378012B0DD1164A126839
:10C78000110709D1154A1168F0221140402903D13F
:10C7900013490968114215D08022A323D205012133
:10C7A000DB00D1500F4B0020986091609A68002AFE
:10C7B000FCD00DE00C490D4A116080210C4A0902A1
:10C7C0001160D8E7C1228021D200C9058B50E3E770
:10C7D00010BDC046E00F00F0E40F00F0E80F00F0DD
:10C7E000EC0F00F0FC000040DFFF07C00405004034
:10C7F000186C004070B51D1CA023041C161CDB0027
:10C80000002D03D040680022C25001E00268D550DC
:10C81000082902D0104800F046FB032E08D8301C2F
:10C8200000F012FF090B0204042207E0062205E0D3
:10C830000A4800F038FB002200E00222A023DB00BF
:10C840000748002D03D061680A50022202E02168E7
:10C850000A500122CA5070BDADDF0100C6DF0100E1
:10C8600054050000036810B55A1C2ED0A022174CA6
:10C87000D20000209850101C154AA14202DC8021F1
:10C8800089041FE0134CA14202DC8021C90419E095
:10C89000114CA14202DC8021090513E00F4CA1429A
:10C8A00002DC802149050DE00D4CA14202DC802113
:10C8B000890507E00B4CA14202DC8021C90501E09B
:10C8C00080210906995001221A5010BD8FD0030013
:10C8D000240500001FA107003F420F007F841E00B7
:10C8E000FF083D00FF117A00F7B5009308AB1B78F5
:10C8F000051C5BB20F1C161C0193013329D1624B3E
:10C900001A78022A10D15978FAB291420CD199784A
:10C91000F2B2914208D10098DA78C3B29A4203D1B8
:10C9200001232B72594C3BE0594B1A78D2B2022AA0
:10C930000FD15878F9B288420BD19878F1B2884279
:10C9400007D10098D978C3B2994202D12A72514CCA
:10C9500026E04F4B1A78002A0BD10222F9B2009838
:10C960001A705970F1B29970C1B2D9702A72494CDB
:10C9700013E0454B1A78002A0CD102221A70009954
:10C98000FAB25A70F2B29A70CAB2DA7001232B72FC
:10C990003E4C02E0404800F086FA019A01322ED166
:10C9A00001233E485B426B60012100232C60235031
:10C9B0002150E0204000C019A022D2058000815003
:10C9C000374827500098C130FF30800081500098D0
:10C9D000A121C9006050E0204000311889008B502F
:10C9E000A222D200A650FC34281CE36008211A1CA5
:10C9F000FFF700FF281C2B49FFF734FF42E001231B
:10CA000026495B42E0202B600022012340006C603D
:10CA1000C01962506350A021C90580004250E02037
:10CA200040008019800042500098C130FF308000E3
:10CA300042500198C130FF3080004250A221C9000D
:10CA40006750174900986650A121C90060501649E7
:10CA500001986050211CFC318A60CA62A721C9007C
:10CA60006350A921C9006350104811496050114911
:10CA7000114860508021042089006050281C082142
:10CA8000FFF7B8FEF7BDC046F42800200030004094
:10CA9000F828002000400040D7DF0100FC0F000014
:10CAA0000C05000040420F0014050000A1280020E2
:10CAB0004405000034050000A028002003681A1C6B
:10CAC000FC32D268002AFAD1064A995003681A1C2F
:10CAD000FC32D1680129FAD10021D160A322D20011
:10CAE000985870471C050000F8B5061C0C1C8F18E0
:10CAF0000025BC4207D0336821781B68301C98475A
:10CB000001342D18F5E7281CF8BD38B5051C0C1CA0
:10CB1000081E07D000F091FD2B68021C5B68281CE2
:10CB2000211C984738BD08B5FFF7EFFF08BD08B5D1
:10CB300003681B68984708BD38B50D21041CFFF732
:10CB4000F6FF0A21051C201CFFF7F1FF401938BD34
:10CB5000F0B58BB0151C09AB0022071C0E1C1A7017
:10CB6000012D00D80A256C462334301C291C00F006
:10CB700075FD031C6B43F61AF6B2211C092E01D871
:10CB8000303600E03736F6B22670013C002801D07E
:10CB9000061CEAE7381CFFF7B8FF0BB0F0BD08B57C
:10CBA000002A04D10368C9B21B68984702E0D2B2D8
:10CBB000FFF7CEFF08BD08B5FFF7F1FF08BD38B598
:10CBC000041CFFF7ECFF051C201CFFF7B5FF28181D
:10CBD00038BD0000FF23182801D8024B1B5C58B257
:10CBE0007047C046E8DF010038B5041C00F0F8FBD0
:10CBF000051C00F0F5FB401BA042FAD338BD08B578
:10CC0000FA239B005843FFF7EFFF08BD30B587B00C
:10CC10000C1CFFF7DFFF051C431C04D10D480E4917
:10CC20000F2200F0EAF86B461D70012C06D0002C94
:10CC300004D0022C0BD10021032501E0211C00258A
:10CC4000684600F097F96846291C00F08DF907B096
:10CC500030BDC04601E0010018E0010038B50D1CF0
:10CC6000FFF7B8FF041C431C04D1094809492322DB
:10CC700000F0C3F80122A023A240DB05141C002D04
:10CC800002D0A121C90000E003495C5038BDC04674
:10CC900001E0010018E001000C05000001207047D0
:10CCA000054B1A1C4032107841331B784030C01AB3
:10CCB0003F2318407047C046A2280020084A111C94
:10CCC000101C413140300B780078984205D0D05C80
:10CCD00001333F2213400B7001E0012040427047B6
:10CCE000A2280020064B1A1C191C41324031127830
:10CCF0000978914201D0985C01E0012040427047E0
:10CD0000A228002007B5034B6846009300F068FA9C
:10CD10000EBDC0460020004007B5044B0093684696
:10CD200000F06CFA0028FAD007BDC0460020004091
:10CD300030B5074B3F211A1C40321478651C29403E
:10CD40001D1C41352D788D4201D01855117030BD14
:10CD5000A228002000234360FA239B008360024B3B
:10CD6000083303607047C04690E0010073B5101CA3
:10CD70001E1C0C1CFFF72EFF051C301CFFF72AFFA2
:10CD80000B4B2A1C011C6846009300F053F9012349
:10CD90005B421A1C6846002100F038FA6846211CE4
:10CDA00000F024F968460021012200F0D3F973BD98
:10CDB0000020004008B500220123FFF7D7FF08BD7F
:10CDC00008B5034800F0B2FB0248FFF7C3FF08BDF7
:10CDD000A2280020E42800207047704708B5FFF71C
:10CDE000FCFFFFF7F9FF00F09BFB08BD08B500282A
:10CDF00000D1FEE700F01EF8FBE708B500F01AF8D6
:10CE000008BD000038B50023C356041C0D1C0133B7
:10CE100004D1064806492422FFF7EFFF6368002D7E
:10CE200001D0E26800E02269136038BDB8E001007B
:10CE3000D0E0010000B599B068460F2100F065F818
:10CE400006A80F2100F061F80CA80F2100F05DF892
:10CE500012A80F2100F059F868460121FFF7D2FF10
:10CE600006A80021FFF7CEFF0CA80021FFF7CAFF9C
:10CE700012A80121FFF7C6FF962000F056F8684679
:10CE80000021FFF7BFFF06A80121FFF7BBFF0CA899
:10CE90000121FFF7B7FF12A80021FFF7B3FF96208B
:10CEA00000F043F8D8E70FB4012008B500F078FB94
:10CEB00038B50023C356041C0D1C013304D10648A9
:10CEC00006492422FFF799FF6368002D01D0E2682C
:10CED00000E02269136038BDB8E00100D0E0010035
:10CEE00070B50D1C041C161C00F026F801350BD083
:10CEF000201C311CFFF7DCFF201C012100F03AF858
:10CF0000201C002100F030F870BD08B50022FFF7AA
:10CF1000E7FF08BD38B5041C00F062FA051C00F0FC
:10CF20005FFA401BA042FAD338BD08B5FA239B0034
:10CF30005843FFF7EFFF08BD01704B1C0AD00123D7
:10CF40008B404360044BC360044B0361044B43615B
:10CF5000044B83607047C046080500500C05005024
:10CF6000100500501405005008B5007840B200F0DC
:10CF70001FF808BD38B50023C356051C0C1C01332F
:10CF800004D1094809492A22FFF737FF002C01D0B4
:10CF9000012C07D10022AA56A023C132FF329200F1
:10CFA000DB05D45038BDC046B8E001006FE1010098
:10CFB00038B5041C0D1C431C04D10A480A491A2226
:10CFC000FFF71BFFA023A000DB05C018E023DB0058
:10CFD000C2580C218A43C250C258AD001543C550F7
:10CFE00038BDC046BDE001000BE20100962210B53D
:10CFF0000123D200914203DC9E210268C90212E0A3
:10D000000A4ADC00A458A14207DA013BDB00D2182F
:10D0100001685268064BCA5007E00133112BEFD16B
:10D02000802102684905024BD15010BDA8E20100E1
:10D0300024050000F8B5284B284C0360A023DB052D
:10D040000F1C161C01211A59B9400A431A511959CB
:10D05000802252000A431A511A590121B1408A43D1
:10D060001A5119591E4A051C0A4096211A51890164
:10D07000FFF7BCFF2B681B4900225A50A021C900B2
:10D0800004205850012199601960191CFC31CA60B4
:10D0900015495A506A60A1220821D2009950134ABA
:10D0A0000A219F50A222D20099501E517B1C03D00E
:10D0B000381C0321FFF77CFF711C03D0301C0321B7
:10D0C000FFF776FF0A4B01221A60291C0822094843
:10D0D00000F0A2FAF8BDC046002000401405000090
:10D0E000FFFBFFFF6C0500001C0500000C050000A5
:10D0F000FC28002008290020124AC1239B00D15897
:10D1000010B5080603D51049096A002911D1D35872
:10D110005A0716D50C4BDA68002A12D00024DC60BE
:10D12000084AA323DB00D058C0B2FFF701FE211C40
:10D1300000E00121054B1868002802D0044B1B6851
:10D14000984710BD00200040FC200040042900202A
:10D150000029002030B503681E4C18194442604174
:10D160004000002A1BD0002903D0012905D18021CD
:10D1700000E00421C12292009950174BC022920076
:10D1800040B29C58C100FF258D40AC43C0258D4066
:10D19000291C21439950012282401A6018E000297D
:10D1A00008D0012914D1C222920080249C509B589F
:10D1B0009B0806E0C2229200042199509B5801214D
:10D1C000DB09994304D001238340181C034BD86723
:10D1D00030BDC04600E0FFBF00E100E004E100E038
:10D1E00003681A1CFC32106A0128FAD10020106270
:10D1F000014AC9B2995070471C0500000368FC330E
:10D20000186A01384342584170470000F7B50E1CB8
:10D2100001930223041C0D1C171C9E43012E13D1E5
:10D220001F4BA022D205D158301CB8400143D15029
:10D23000381C0321FFF7BCFE2368A122D2009F50B7
:10D24000184A99580E439E50AB1E012B16D8144B0A
:10D25000A022019ED2050125D158281CB04081434F
:10D26000D150301C0321FFF7A3FE2368A222D20075
:10D270009E500C4A99580D439D500FE0002D0DD142
:10D2800023680122A1215242C9005A50A221C9009B
:10D290005A50044A0120995881439950F7BDC0461D
:10D2A000140500006C0500000A490B4A88680B4B06
:10D2B000002808D01868013018600020886002201B
:10D2C000D2218140505006491B6852581806190A4D
:10D2D00010437047FC100140001001401429002049
:10D2E000040500002F23C046C046C046C046C046C5
:10D2F000C046C046C046C046C046C046C046C046FE
:10D30000C046013B002BEED170470000174B70B5B3
:10D310009A68002A0AD0164A022011680131116069
:10D3200000229A601349D222824088505B6C114CD3
:10D33000002B19D0104D2B78002B15D00F4B1E68E9
:10D34000FFF7B2FF361A002E0EDC084B002159649D
:10D35000D22280235B029200A3502970C22189004F
:10D360006350A35000F0F0F870BDC046FC100140BF
:10D370001429002000100140192900201029002044
:10D3800038B5124C2278002A1FD1114BA121C900B7
:10D390005A500222D22191405A50C12191405A50F4
:10D3A0000C4AC421890055580B482840C0252D023D
:10D3B000284350508021C02089024000012511508F
:10D3C00011601D60FFF78EFF257038BD1829002001
:10D3D0000010014000E100E0FF00FFFF000000003E
:10D3E00008B50B4B1B78002B01D1FFF7C9FFFFF7E6
:10D3F0005BFF064B044A00F0A1F94904C00B084347
:10D4000008BDC046C046C04640420F0000000000B4
:10D4100018290020C046C0462F4B70B51B78061C4B
:10D42000002B01D1FFF7ACFFFFF73EFF254B244A4D
:10D4300000F084F94B04C00B002400251843CD0BE9
:10D440000023321CA4185D4180231B06984205D995
:10D45000002E03DB1C4A1D4BA4185D41610CEB033D
:10D460000B43E2031A481B4980185941154B144AD3
:10D4700000F044F9194D041C2B78194E002B02D0F2
:10D48000336898421BD0FFF70FFF201A022802DCF6
:10D49000FFF70AFF841C2102124BA822D200090ABE
:10D4A00099502A783460002A09D101222A70D221A9
:10D4B0008022520289005A50C12189005A5070BD01
:10D4C00040420F00000000000000000001000000CA
:10D4D0003F420F00000000001829002019290020F9
:10D4E0001029002000100140074B1A78002A0AD0AA
:10D4F000064A8021C220490280001150D2208000BB
:10D50000115000221A7070471929002000100140A4
:10D51000024B00229A605A647047C046FC100140DA
:10D5200008B5FFF769F8FFF773F8FCE710B50021BD
:10D53000041C402200F079F8221C40320023201CF9
:10D540001370537010BD000008B5024800F004F8D5
:10D5500008BDC04644E3010038B50368041CDB681D
:10D56000984763685A682368002A02D19B689847E5
:10D5700014E05B681568984763682D1A002D08DC75
:10D580005A68916859601B68002BEAD05068984728
:10D59000E7E75B68226818681369984738BD0000A0
:10D5A000084B10B5041C002B02D0002100E000BF86
:10D5B000054B1868836A002B00D09847201CFFF7A2
:10D5C00015FCC04600000000ACE3010070B50E4B36
:10D5D0000E4D0024ED1AAD101E1CAC4204D0A30069
:10D5E000F35898470134F8E700F0BCFC084B094DAC
:10D5F0000024ED1AAD101E1CAC4204D0A300F35859
:10D6000098470134F8E770BD6028002060280020AA
:10D61000602800206828002010B50023934203D022
:10D62000CC5CC4540133F9E710BD031C821893424B
:10D6300002D019700133FAE770470023C25C01334E
:10D64000002AFBD1581E704702B4714649084900B0
:10D65000095C49008E4402BC7047C046002934D0A2
:10D660000123002210B488422CD301242407A142B4
:10D6700004D2814202D209011B01F8E7E400A14271
:10D6800004D2814202D249005B00F8E7884201D30C
:10D69000401A1A434C08A04202D3001B5C082243E4
:10D6A0008C08A04202D3001B9C082243CC08A04255
:10D6B00002D3001BDC082243002803D01B0901D041
:10D6C0000909E3E7101C10BC7047002801D00020B6
:10D6D000C04307B4024802A14018029003BDC046EF
:10D6E000190000000029F0D003B5FFF7B9FF0EBC08
:10D6F0004243891A1847C0467047C046002B11D1D3
:10D70000002A0FD1002900D1002802D00021C943EE
:10D71000081C07B4024802A14018029003BDC0468D
:10D72000D9FFFFFF03B4684601B5029800F044F842
:10D73000019B9E4602B00CBC7047C0469C46030449
:10D74000F0B51B0C17043F0C150C1E1C041C000C20
:10D750007E436B4347434543FB18300C1818874200
:10D7600002D980235B02ED18030CED1863465C437D
:10D770004A433604360CA118000480194919F0BD3B
:10D78000F0B583B0161C1F1C0090019100F04CF8FE
:10D79000041C0D1C221C2B1C301C391CFFF7CEFF57
:10D7A000009A019B121A8B410899201C0A604B6059
:10D7B000291C03B0F0BDC046F0B583B0141C1D1C7D
:10D7C0000090019100F00CFA221C2B1C061C0F1C6F
:10D7D000FFF7B4FF009A019B121A8B410899301C85
:10D7E0000A604B60391C03B0F0BDC0461C21012308
:10D7F0001B04984201D3000C10391B0A984201D334
:10D80000000A08391B09984201D30009043902A211
:10D81000105C40187047C046040302020101010178
:10D820000000000000000000F0B544465F46564688
:10D830004D46F0B41C1C85B0002900DADBE00F1C5B
:10D840000021061C8A46101C191C002C00DAC9E0B5
:10D850000196009089468046002951D1B84200D8EF
:10D8600071E0FFF7C3FF002809D020234546311C93
:10D870001B1A85408740D940A8460F438640424640
:10D88000150C13041B0C291C381C9B46FFF7E6FEE5
:10D890005B464343041C291C381C9946FFF722FFB2
:10D8A000330C08041843814509D94044631E804560
:10D8B00000D978E1814500D875E1023C40444946F1
:10D8C000411A8946081C291CFFF7C8FE5A464243E4
:10D8D000071C291C48469346FFF704FF3604090439
:10D8E000360C0E43B34507D946447B1EB04502D8DB
:10D8F000023FB34500D81F1C24042743002403E043
:10D90000B94211D9002400275246381C211C002A94
:10D9100003D03B1C00215842A14105B03CBC9046BD
:10D920009946A246AB46F0BD081CFFF75FFF041EF8
:10D9300000D0BFE0B94500D242E1019D0099071C2B
:10D940008D424741E0E7002804D101200021FFF784
:10D9500085FE80464046FFF749FF002852D14146E8
:10D9600044460B043C1B1B0CA3460D0C00930124E6
:10D97000291C5846FFF772FE009F81464743291C29
:10D980005846FFF7AFFE330C090419438F4208D9FC
:10D990004B464144013B884502D88F4200D91AE1E9
:10D9A0009946C91B8B46081C291CFFF757FE009B94
:10D9B000291C4343071C58460093FFF793FE360487
:10D9C000009D0904360C0E43B54207D946447B1E20
:10D9D000B04502D8023FB54200D81F1C49460E048C
:10D9E000374391E75246D243031C0C1C9246002158
:10D9F0005842A1412CE7002746428F41012149426C
:10DA00008A4620E720231B1A4246351C82403C1CD4
:10DA1000DD40DC4087402B1C150C3B43291C864015
:10DA2000201C009317049046FFF718FE3F0C011CC2
:10DA3000794381468B46201C291CFFF753FE009C2E
:10DA40000904230C19438B450CD94B464144013B37
:10DA5000884500D9BDE08B4500D8BAE00222524289
:10DA6000914441445C460C1B201C291C0194FFF787
:10DA7000F5FD391C4143041C8B460198291CFFF716
:10DA800031FE009A090413041B0C19438B4509D974
:10DA90004144631E884500D997E08B4500D894E047
:10DAA000023C41445B46CB1A49469B460B041C434F
:10DAB00000975DE7009D20231B1A4A468240DD4007
:10DAC0001543391C009AD94082408846311C009287
:10DAD000D9403A1C82400B1C134301932F0C2B049A
:10DAE0001B0C391C40460293FFF7B8FD029A814691
:10DAF0004243391C40469346FFF7F4FD019A09045E
:10DB0000130C19438B450AD94B464919013B8D42E9
:10DB10005DD88B455BD902235B42994449195A462B
:10DB20008A1A101C391C0392FFF798FD029B80464D
:10DB30004343391C03989B46FFF7D4FD019A09041F
:10DB400013041B0C19438B450AD943464919013B61
:10DB50008D4238D88B4536D902235B429844491907
:10DB60005D464D1BAB464946009D0F044246174398
:10DB70002A04120C3B042D0C1B0C380C111C5943AD
:10DB800042436B436843D3180D0C5B198C469A4291
:10DB900002D98022520280181D0C401983450CD3F3
:10DBA00003D00024B0E61C1C89E665462A041B0449
:10DBB000120C9B18A6409E42F3D2013F0024A3E61C
:10DBC00000240127A0E69846CAE71C1C6AE799468C
:10DBD000A5E7994646E70222524291444144E0E6D5
:10DBE000F0B55F4656464D464446F0B40D1C85B030
:10DBF000061C924698460290019103921F1C141C29
:10DC00008346A946002B59D1AA4269D9101CFFF7B7
:10DC1000EDFD00280AD020231B1A311CD940854075
:10DC20000B1C2B43864084409946B346250C2304A5
:10DC30001B0C291C48469846FFF710FD4646071C5A
:10DC40004643291C4846FFF74DFD5A460904130C6C
:10DC500019438E4209D909197B1E8C4200D957E11C
:10DC60008E4200D854E1023F0919891B8946081CDD
:10DC7000291CFFF7F3FC43464343061C291C484676
:10DC80009846FFF72FFD5A46130409041B0C19434D
:10DC9000884508D90919731E8C4200D936E1023E25
:10DCA000884500D832E1380430430027391C05B0DC
:10DCB0003CBC90469946A246AB46F0BD019A9342C1
:10DCC00062D8181CFFF792FD041E60D1019B9F4291
:10DCD00000D22CE1029F03998F4260410027E5E7C3
:10DCE000002A04D101200021FFF7B8FC041C201CED
:10DCF000FFF77CFD002800D0B9E023042D1B1B0C8E
:10DD0000A946260C98460127311C4846FFF7A6FC79
:10DD100041464143051C8A464846311CFFF7E2FC58
:10DD20005A460804130C1843824507D900196B1E84
:10DD3000844202D8824500D910E11D1C5346C31A03
:10DD4000181C311C9A46FFF789FC41464143814625
:10DD500088465046311CFFF7C5FC5A461304090497
:10DD60001B0C194388450BD94B460919013B8C42C2
:10DD700000D9CFE0884500D8CCE002235B4299442B
:10DD800028044946084391E7002700208EE7202316
:10DD90001B1A424657468240DF4017435246824094
:10DDA0000192321CDA40291CD9408540131C2B43B8
:10DDB00002933D0C3B041B0C8846081C291C9A4608
:10DDC000FFF74CFC534643438146291C40469B4683
:10DDD000FFF788FC029A0904130C19438B4506D9F6
:10DDE0004B46C919013B8F4200D8ABE099465A46D1
:10DDF0008A1A101C291C9346FFF730FC53464343F4
:10DE0000291C804658469A46FFF76CFC029A090482
:10DE100015042D0C29438A4506D94346C919013BEF
:10DE20008F4200D886E098465746CF1BBA464946EF
:10DE3000019F0804424610433D042D0C03043F0C8F
:10DE40001B0C020C291C594355437B437A43EB18A6
:10DE50000F0CDB198C469D4202D980277F02D21914
:10DE60001D0C521992455FD356D000271EE7202380
:10DE70001B1A311C2F1CD940DF4085400B1C8440ED
:10DE80002B4386400193B3462304260C1B0C381CFD
:10DE9000311C9846FFF7E2FB42464243051C311C09
:10DEA000381C9146FFF71EFC019F09043B0C1943E7
:10DEB000894507D909196B1E8C424DD889454BD924
:10DEC000023D09194A468A1A101C311C9246FFF776
:10DED000C5FB43464343071C311C50469946FFF798
:10DEE00001FC019A090413041B0C1943894507D945
:10DEF00009197B1E8C422DD889452BD9023F09195F
:10DF00004B46CB1A2D0499462F43FDE61E1CCAE64C
:10DF10001F1CAAE6994633E761460A041B04120C4B
:10DF20009B18A6409E42A0D201380027BEE60027DB
:10DF30000120BBE68A4500D875E702235B4298447E
:10DF4000C91971E78B4500D850E702235B42994419
:10DF5000C9194CE71F1CD3E71D1CB3E7023D00198C
:10DF6000ECE6C046F8B5C046F8BC08BC9E46704713
:10DF7000F8B5C046F8BC08BC9E46704709090909B7
:10DF8000090A0A0B4D616E7566616374757265727C
:10DF90003A203078004465766963653A203078002D
:10DFA00048656C6C6F20576F726C6421004F6E6C0B
:10DFB00079203862697473205350492073757070EA
:10DFC0006F727465640053504920666F726D61749E
:10DFD000206572726F72004E6F20617661696C61AC
:10DFE000626C6520535049000B090A08151710117F
:10DFF00013120E0C0D0F1D1C19161401020304053B
:10E00000066E72665F70696E20213D202850696E31
:10E010004E616D65294E43002F55736572732F66EF
:10E0200072616E6B2F4C6962726172792F417264FA
:10E0300075696E6F31352F7061636B616765732F22
:10E04000526564426561724C61622F6861726477E7
:10E050006172652F6E524635313832322F312E3093
:10E060002E352F636F7265732F52424C5F6E52468E
:10E0700035313832322F776972696E675F6469674C
:10E080006974616C2E637070000000000000000075
:10E09000000000000000000005CD0100E9CA0100F9
:10E0A000A1CC0100BDCC0100E5CC010019CD0100DF
:10E0B0009DCC0100000000006F626A2D3E70696E09
:10E0C00020213D202850696E4E616D65294E430028
:10E0D0002F55736572732F6672616E6B2F4C696278
:10E0E000726172792F41726475696E6F31352F706C
:10E0F00061636B616765732F526564426561724C41
:10E1000061622F68617264776172652F6E52463565
:10E11000313832322F312E302E352F636F726573C6
:10E120002F52424C5F6E524635313832322F6D627B
:10E1300065642F746172676574732F68616C2F5406
:10E1400041524745545F4E4F524449432F54415228
:10E150004745545F4D43555F4E5246353138323254
:10E160002F6770696F5F6F626A6563742E68002F36
:10E1700055736572732F6672616E6B2F4C69627294
:10E180006172792F41726475696E6F31352F7061DC
:10E19000636B616765732F526564426561724C61A0
:10E1A000622F68617264776172652F6E52463531F5
:10E1B0003832322F312E302E352F636F7265732F28
:10E1C00052424C5F6E524635313832322F6D6265A5
:10E1D000642F746172676574732F68616C2F54418A
:10E1E000524745545F4E4F524449432F5441524782
:10E1F00045545F4D43555F4E524635313832322FCC
:10E200006770696F5F6170692E63002F5573657267
:10E21000732F6672616E6B2F4C6962726172792F17
:10E2200041726475696E6F31352F7061636B616720
:10E2300065732F526564426561724C61622F68613B
:10E240007264776172652F6E524635313832322FE3
:10E25000312E302E352F636F7265732F52424C5F13
:10E260006E524635313832322F6D6265642F7461DB
:10E2700072676574732F68616C2F5441524745541F
:10E280005F4E4F524449432F5441524745545F4DCE
:10E2900043555F4E524635313832322F70696E6DBC
:10E2A00061702E6300000000B004000000F0040064
:10E2B0006009000000D00900C012000000B0130087
:10E2C00080250000005027004038000000003B007F
:10E2D000004B000000A04E008070000000F07500B0
:10E2E000127A0000000080000096000000509D009F
:10E2F00000E1000000F0EB00002C010000903A016A
:10E3000000C2010000E0D7010084030000B0AF03A9
:10E3100090D00300000000040008070000705F07B1
:10E3200000100E00A4DFBE0E40420F0000000010DF
:10E3300081D30100E1D30100E9D4010011D501002E
:10E3400019D4010030E301001C2900200000000066
:10E3500000000000000000000000000000000000BD
:10E3600000000000000000000000000000000000AD
:10E37000000000000000000000000000000000009D
:10E38000000000000000000000000000000000008D
:10E39000000000000000000000000000000000007D
:10E3A0000000000000000000000000000028002025
:04E3B0000000000069
:08E3B4006CDDFF7F0100000099
:10E3BC00000000004CE301006CE301008CE3010061
:10E3CC000000000000000000000000000000000041
:10E3DC00CEE0010000000000000000000000000082
:10E3EC000000000000000000000000000000000021
:10E3FC000000000000000000000000000000000011
:10E40C000000000000000000000000000000000000
:0CE41C00E9C00100C1CD0100C1C0010039
:040000031000C6FD26
:00000001FF
